{
  "_format": "hh-sol-artifact-1",
  "contractName": "PGC",
  "sourceName": "contracts/PGC.sol",
  "abi": [
    {
      "inputs": [
        {
          "internalType": "address",
          "name": "params_",
          "type": "address"
        },
        {
          "internalType": "address",
          "name": "verifier_",
          "type": "address"
        },
        {
          "internalType": "address",
          "name": "tokenConverter_",
          "type": "address"
        }
      ],
      "stateMutability": "nonpayable",
      "type": "constructor"
    },
    {
      "anonymous": false,
      "inputs": [
        {
          "indexed": true,
          "internalType": "address",
          "name": "proxy",
          "type": "address"
        },
        {
          "indexed": true,
          "internalType": "address",
          "name": "token",
          "type": "address"
        },
        {
          "indexed": false,
          "internalType": "uint256[4]",
          "name": "fromto",
          "type": "uint256[4]"
        },
        {
          "indexed": false,
          "internalType": "uint256[8]",
          "name": "ct",
          "type": "uint256[8]"
        },
        {
          "indexed": false,
          "internalType": "uint256",
          "name": "time",
          "type": "uint256"
        }
      ],
      "name": "LogAggTransfer",
      "type": "event"
    },
    {
      "anonymous": false,
      "inputs": [
        {
          "indexed": true,
          "internalType": "address",
          "name": "proxy",
          "type": "address"
        },
        {
          "indexed": true,
          "internalType": "address",
          "name": "receiver",
          "type": "address"
        },
        {
          "indexed": true,
          "internalType": "address",
          "name": "token",
          "type": "address"
        },
        {
          "indexed": false,
          "internalType": "uint256",
          "name": "accountx",
          "type": "uint256"
        },
        {
          "indexed": false,
          "internalType": "uint256",
          "name": "accounty",
          "type": "uint256"
        },
        {
          "indexed": false,
          "internalType": "uint256",
          "name": "amount",
          "type": "uint256"
        },
        {
          "indexed": false,
          "internalType": "uint256",
          "name": "time",
          "type": "uint256"
        }
      ],
      "name": "LogBurn",
      "type": "event"
    },
    {
      "anonymous": false,
      "inputs": [
        {
          "indexed": true,
          "internalType": "address",
          "name": "proxy",
          "type": "address"
        },
        {
          "indexed": true,
          "internalType": "address",
          "name": "receiver",
          "type": "address"
        },
        {
          "indexed": true,
          "internalType": "address",
          "name": "token",
          "type": "address"
        },
        {
          "indexed": false,
          "internalType": "uint256",
          "name": "accountx",
          "type": "uint256"
        },
        {
          "indexed": false,
          "internalType": "uint256",
          "name": "accounty",
          "type": "uint256"
        },
        {
          "indexed": false,
          "internalType": "uint256",
          "name": "amount",
          "type": "uint256"
        },
        {
          "indexed": false,
          "internalType": "uint256",
          "name": "time",
          "type": "uint256"
        }
      ],
      "name": "LogBurnPart",
      "type": "event"
    },
    {
      "anonymous": false,
      "inputs": [
        {
          "indexed": true,
          "internalType": "address",
          "name": "proxy",
          "type": "address"
        },
        {
          "indexed": true,
          "internalType": "address",
          "name": "token",
          "type": "address"
        },
        {
          "indexed": false,
          "internalType": "uint256",
          "name": "tox",
          "type": "uint256"
        },
        {
          "indexed": false,
          "internalType": "uint256",
          "name": "toy",
          "type": "uint256"
        },
        {
          "indexed": false,
          "internalType": "uint256",
          "name": "amount",
          "type": "uint256"
        },
        {
          "indexed": false,
          "internalType": "uint256",
          "name": "time",
          "type": "uint256"
        }
      ],
      "name": "LogDepositAccount",
      "type": "event"
    },
    {
      "anonymous": false,
      "inputs": [
        {
          "indexed": true,
          "internalType": "address",
          "name": "proxy",
          "type": "address"
        },
        {
          "indexed": true,
          "internalType": "address",
          "name": "token",
          "type": "address"
        },
        {
          "indexed": false,
          "internalType": "uint256[4]",
          "name": "fromto",
          "type": "uint256[4]"
        },
        {
          "indexed": false,
          "internalType": "uint256[4]",
          "name": "ct1",
          "type": "uint256[4]"
        },
        {
          "indexed": false,
          "internalType": "uint256[4]",
          "name": "ct2",
          "type": "uint256[4]"
        },
        {
          "indexed": false,
          "internalType": "uint256",
          "name": "time",
          "type": "uint256"
        }
      ],
      "name": "LogTransfer",
      "type": "event"
    },
    {
      "inputs": [
        {
          "internalType": "bytes",
          "name": "points",
          "type": "bytes"
        },
        {
          "internalType": "uint256[10]",
          "name": "scalar",
          "type": "uint256[10]"
        },
        {
          "internalType": "uint256",
          "name": "token",
          "type": "uint256"
        },
        {
          "internalType": "bytes",
          "name": "lr",
          "type": "bytes"
        }
      ],
      "name": "aggTransfer",
      "outputs": [
        {
          "internalType": "bool",
          "name": "",
          "type": "bool"
        }
      ],
      "stateMutability": "nonpayable",
      "type": "function"
    },
    {
      "inputs": [
        {
          "internalType": "bytes",
          "name": "points",
          "type": "bytes"
        },
        {
          "internalType": "uint256[10]",
          "name": "scalar",
          "type": "uint256[10]"
        },
        {
          "internalType": "bytes",
          "name": "lr",
          "type": "bytes"
        }
      ],
      "name": "aggTransferETH",
      "outputs": [
        {
          "internalType": "bool",
          "name": "",
          "type": "bool"
        }
      ],
      "stateMutability": "nonpayable",
      "type": "function"
    },
    {
      "inputs": [],
      "name": "bitSize",
      "outputs": [
        {
          "internalType": "uint256",
          "name": "",
          "type": "uint256"
        }
      ],
      "stateMutability": "view",
      "type": "function"
    },
    {
      "inputs": [
        {
          "internalType": "address payable",
          "name": "receiver",
          "type": "address"
        },
        {
          "internalType": "uint256",
          "name": "token",
          "type": "uint256"
        },
        {
          "internalType": "uint256",
          "name": "amount",
          "type": "uint256"
        },
        {
          "internalType": "bytes",
          "name": "points",
          "type": "bytes"
        },
        {
          "internalType": "uint256",
          "name": "z",
          "type": "uint256"
        }
      ],
      "name": "burn",
      "outputs": [
        {
          "internalType": "bool",
          "name": "",
          "type": "bool"
        }
      ],
      "stateMutability": "nonpayable",
      "type": "function"
    },
    {
      "inputs": [
        {
          "internalType": "address payable",
          "name": "receiver",
          "type": "address"
        },
        {
          "internalType": "uint256",
          "name": "amount",
          "type": "uint256"
        },
        {
          "internalType": "bytes",
          "name": "points",
          "type": "bytes"
        },
        {
          "internalType": "uint256",
          "name": "z",
          "type": "uint256"
        }
      ],
      "name": "burnETH",
      "outputs": [
        {
          "internalType": "bool",
          "name": "",
          "type": "bool"
        }
      ],
      "stateMutability": "nonpayable",
      "type": "function"
    },
    {
      "inputs": [
        {
          "internalType": "uint256",
          "name": "x",
          "type": "uint256"
        },
        {
          "internalType": "uint256",
          "name": "y",
          "type": "uint256"
        },
        {
          "internalType": "uint256",
          "name": "nonce",
          "type": "uint256"
        },
        {
          "internalType": "uint256[2]",
          "name": "sig",
          "type": "uint256[2]"
        }
      ],
      "name": "closePending",
      "outputs": [],
      "stateMutability": "nonpayable",
      "type": "function"
    },
    {
      "inputs": [
        {
          "internalType": "bytes",
          "name": "publicKey",
          "type": "bytes"
        },
        {
          "internalType": "address",
          "name": "tokenAddr",
          "type": "address"
        },
        {
          "internalType": "uint256",
          "name": "tokenAmount",
          "type": "uint256"
        }
      ],
      "name": "depositAccount",
      "outputs": [
        {
          "internalType": "bool",
          "name": "",
          "type": "bool"
        }
      ],
      "stateMutability": "payable",
      "type": "function"
    },
    {
      "inputs": [
        {
          "internalType": "bytes",
          "name": "publicKey",
          "type": "bytes"
        }
      ],
      "name": "depositAccountETH",
      "outputs": [
        {
          "internalType": "bool",
          "name": "",
          "type": "bool"
        }
      ],
      "stateMutability": "payable",
      "type": "function"
    },
    {
      "inputs": [],
      "name": "g",
      "outputs": [
        {
          "internalType": "uint256",
          "name": "X",
          "type": "uint256"
        },
        {
          "internalType": "uint256",
          "name": "Y",
          "type": "uint256"
        }
      ],
      "stateMutability": "view",
      "type": "function"
    },
    {
      "inputs": [
        {
          "internalType": "uint256",
          "name": "x",
          "type": "uint256"
        },
        {
          "internalType": "uint256",
          "name": "y",
          "type": "uint256"
        }
      ],
      "name": "getPendingFunNonce",
      "outputs": [
        {
          "internalType": "uint256",
          "name": "",
          "type": "uint256"
        }
      ],
      "stateMutability": "view",
      "type": "function"
    },
    {
      "inputs": [
        {
          "internalType": "uint256",
          "name": "x",
          "type": "uint256"
        },
        {
          "internalType": "uint256",
          "name": "y",
          "type": "uint256"
        },
        {
          "internalType": "address",
          "name": "token",
          "type": "address"
        }
      ],
      "name": "getUserBalance",
      "outputs": [
        {
          "internalType": "uint256[4]",
          "name": "ct",
          "type": "uint256[4]"
        },
        {
          "internalType": "uint256",
          "name": "nonce",
          "type": "uint256"
        }
      ],
      "stateMutability": "view",
      "type": "function"
    },
    {
      "inputs": [],
      "name": "h",
      "outputs": [
        {
          "internalType": "uint256",
          "name": "X",
          "type": "uint256"
        },
        {
          "internalType": "uint256",
          "name": "Y",
          "type": "uint256"
        }
      ],
      "stateMutability": "view",
      "type": "function"
    },
    {
      "inputs": [],
      "name": "maxNumber",
      "outputs": [
        {
          "internalType": "uint256",
          "name": "",
          "type": "uint256"
        }
      ],
      "stateMutability": "view",
      "type": "function"
    },
    {
      "inputs": [],
      "name": "n",
      "outputs": [
        {
          "internalType": "uint256",
          "name": "",
          "type": "uint256"
        }
      ],
      "stateMutability": "view",
      "type": "function"
    },
    {
      "inputs": [
        {
          "internalType": "uint256",
          "name": "x",
          "type": "uint256"
        },
        {
          "internalType": "uint256",
          "name": "y",
          "type": "uint256"
        },
        {
          "internalType": "uint256",
          "name": "epochLength_",
          "type": "uint256"
        },
        {
          "internalType": "uint256",
          "name": "nonce",
          "type": "uint256"
        },
        {
          "internalType": "uint256[2]",
          "name": "sig",
          "type": "uint256[2]"
        }
      ],
      "name": "openPending",
      "outputs": [],
      "stateMutability": "nonpayable",
      "type": "function"
    },
    {
      "inputs": [],
      "name": "params",
      "outputs": [
        {
          "internalType": "contract PublicParams",
          "name": "",
          "type": "address"
        }
      ],
      "stateMutability": "view",
      "type": "function"
    },
    {
      "inputs": [
        {
          "internalType": "bytes",
          "name": "bs",
          "type": "bytes"
        }
      ],
      "name": "toPoint",
      "outputs": [
        {
          "internalType": "uint256[]",
          "name": "",
          "type": "uint256[]"
        },
        {
          "internalType": "uint256[]",
          "name": "",
          "type": "uint256[]"
        }
      ],
      "stateMutability": "view",
      "type": "function"
    },
    {
      "inputs": [],
      "name": "tokenConverter",
      "outputs": [
        {
          "internalType": "contract TokenConverter",
          "name": "",
          "type": "address"
        }
      ],
      "stateMutability": "view",
      "type": "function"
    },
    {
      "inputs": [],
      "name": "verifier",
      "outputs": [
        {
          "internalType": "contract Verifier",
          "name": "",
          "type": "address"
        }
      ],
      "stateMutability": "view",
      "type": "function"
    }
  ],
  "bytecode": "0x60806040523480156200001157600080fd5b50604051620034af380380620034af833981810160405260608110156200003757600080fd5b5080516020820151604090920151600e80546001600160a01b038086166001600160a01b031992831617909255600d8054838516908316179055600c8054928516929091169190911790559091906200008f6200027b565b600c54604080516382529fdb60e01b815281516001600160a01b03909316926382529fdb92600480840193919291829003018186803b158015620000d257600080fd5b505afa158015620000e7573d6000803e3d6000fd5b505050506040513d601f19601f8201168201806040525060408110156200010d57600080fd5b5090506200011a6200027b565b600c54604080516304c09ce960e01b815281516001600160a01b03909316926304c09ce992600480840193919291829003018186803b1580156200015d57600080fd5b505afa15801562000172573d6000803e3d6000fd5b505050506040513d601f19601f8201168201806040525060408110156200019857600080fd5b5082516008556020808401516009558151600a5580820151600b55600c54604080516336a25c8960e21b815290519394506001600160a01b039091169263da89722492600480840193919291829003018186803b158015620001f957600080fd5b505afa1580156200020e573d6000803e3d6000fd5b505050506040513d60208110156200022557600080fd5b505160201462000270576040805162461bcd60e51b8152602060048201526011602482015270189a5d1cda5e99481b9bdd08195c5d585b607a1b604482015290519081900360640190fd5b505050505062000299565b60405180604001604052806002906020820280368337509192915050565b61320680620002a96000396000f3fe6080604052600436106101145760003560e01c80636f203042116100a0578063b8c9d36511610064578063b8c9d36514610978578063cff0ab96146109a6578063d405e5a7146109bb578063e2179b8e14610a26578063ee42cf7314610a3b57610114565b80636f2030421461055f5780638011f7d51461060357806390d694961461074d578063a67aee1f146107ff578063b6b799ca1461081457610114565b8063446546ce116100e7578063446546ce1461019b57806348d5754c1461031a5780634f93a1441461039857806354b9d2f3146104605780635606a4ca1461052f57610114565b80632b7ac3f3146101195780632e52d6061461014a5780633a4f6999146101715780633e8d376414610186575b600080fd5b34801561012557600080fd5b5061012e610aab565b604080516001600160a01b039092168252519081900360200190f35b34801561015657600080fd5b5061015f610aba565b60408051918252519081900360200190f35b34801561017d57600080fd5b5061015f610abf565b34801561019257600080fd5b5061015f610ac7565b3480156101a757600080fd5b5061030660048036036101a08110156101bf57600080fd5b810190602081018135600160201b8111156101d957600080fd5b8201836020820111156101eb57600080fd5b803590602001918460018302840111600160201b8311171561020c57600080fd5b91908080601f0160208091040260200160405190810160405280939291908181526020018383808284376000920191909152505060408051610140818101909252939695948181019493509150600a9083908390808284376000920191909152509194833594909390925060408101915060200135600160201b81111561029257600080fd5b8201836020820111156102a457600080fd5b803590602001918460018302840111600160201b831117156102c557600080fd5b91908080601f016020809104026020016040519081016040528093929190818152602001838380828437600092019190915250929550610acc945050505050565b604080519115158252519081900360200190f35b34801561032657600080fd5b506103596004803603606081101561033d57600080fd5b50803590602081013590604001356001600160a01b03166111f3565b6040518083608080838360005b8381101561037e578181015183820152602001610366565b505050509050018281526020019250505060405180910390f35b3480156103a457600080fd5b50610306600480360360808110156103bb57600080fd5b6001600160a01b0382351691602081013591810190606081016040820135600160201b8111156103ea57600080fd5b8201836020820111156103fc57600080fd5b803590602001918460018302840111600160201b8311171561041d57600080fd5b91908080601f0160208091040260200160405190810160405280939291908181526020018383808284376000920191909152509295505091359250611251915050565b34801561046c57600080fd5b50610306600480360360a081101561048357600080fd5b6001600160a01b038235169160208101359160408201359190810190608081016060820135600160201b8111156104b957600080fd5b8201836020820111156104cb57600080fd5b803590602001918460018302840111600160201b831117156104ec57600080fd5b91908080601f016020809104026020016040519081016040528093929190818152602001838380828437600092019190915250929550509135925061126a915050565b34801561053b57600080fd5b5061015f6004803603604081101561055257600080fd5b5080359060200135611863565b6103066004803603602081101561057557600080fd5b810190602081018135600160201b81111561058f57600080fd5b8201836020820111156105a157600080fd5b803590602001918460018302840111600160201b831117156105c257600080fd5b91908080601f016020809104026020016040519081016040528093929190818152602001838380828437600092019190915250929550611884945050505050565b34801561060f57600080fd5b506106b46004803603602081101561062657600080fd5b810190602081018135600160201b81111561064057600080fd5b82018360208201111561065257600080fd5b803590602001918460018302840111600160201b8311171561067357600080fd5b91908080601f01602080910402602001604051908101604052809392919081815260200183838082843760009201919091525092955061189a945050505050565b604051808060200180602001838103835285818151815260200191508051906020019060200280838360005b838110156106f85781810151838201526020016106e0565b50505050905001838103825284818151815260200191508051906020019060200280838360005b8381101561073757818101518382015260200161071f565b5050505090500194505050505060405180910390f35b6103066004803603606081101561076357600080fd5b810190602081018135600160201b81111561077d57600080fd5b82018360208201111561078f57600080fd5b803590602001918460018302840111600160201b831117156107b057600080fd5b91908080601f016020809104026020016040519081016040528093929190818152602001838380828437600092019190915250929550506001600160a01b0383351693505050602001356119b7565b34801561080b57600080fd5b5061012e611c96565b34801561082057600080fd5b50610306600480360361018081101561083857600080fd5b810190602081018135600160201b81111561085257600080fd5b82018360208201111561086457600080fd5b803590602001918460018302840111600160201b8311171561088557600080fd5b91908080601f0160208091040260200160405190810160405280939291908181526020018383808284376000920191909152505060408051610140818101909252939695948181019493509150600a90839083908082843760009201919091525091949392602081019250359050600160201b81111561090457600080fd5b82018360208201111561091657600080fd5b803590602001918460018302840111600160201b8311171561093757600080fd5b91908080601f016020809104026020016040519081016040528093929190818152602001838380828437600092019190915250929550611ca5945050505050565b34801561098457600080fd5b5061098d611cbc565b6040805192835260208301919091528051918290030190f35b3480156109b257600080fd5b5061012e611cc5565b3480156109c757600080fd5b50610a24600480360360a08110156109de57600080fd5b60408051808201825283359360208101359383820135939082019260a083019160608401906002908390839080828437600092019190915250919450611cd49350505050565b005b348015610a3257600080fd5b5061098d611eab565b348015610a4757600080fd5b50610a24600480360360c0811015610a5e57600080fd5b6040805180820182528335936020810135938382013593606083013593918301929160c083019160808401906002908390839080828437600092019190915250919450611eb49350505050565b600e546001600160a01b031681565b600581565b600160201b81565b602081565b6000845161029414610b1d576040805162461bcd60e51b8152602060048201526015602482015274092dcecc2d8d2c840e0ded2dce8e640d8cadccee8d605b1b604482015290519081900360640190fd5b815161018c14610b68576040805162461bcd60e51b8152602060048201526011602482015270092dcecc2d8d2c840d8e440d8cadccee8d607b1b604482015290519081900360640190fd5b610b70612ff2565b6060610b7b8761209a565b905080600281518110610b8a57fe5b6020908102919091010151825152805181906005908110610ba757fe5b6020026020010151826000015160200181905250610bf681600081518110610bcb57fe5b60200260200101516000015182600081518110610be457fe5b60200260200101516020015187612196565b6040830152815151610c1790610c0b906124c8565b60408401515190612540565b604083015152815160200151610c3f90610c30906124c8565b60408401516020015190612540565b604083015160200152610c5061308b565b60408381018051515183528051516020908101518185015281518101515184840152815181015101516060840152600e5490518201519151631634f41760e31b81526001600160a01b039091169163b1a7a0b8918b918b918a9187918d90600481019081906024018761014080838360005b83811015610cda578181015183820152602001610cc2565b50505092019150506020810186608080838360005b83811015610d07578181015183820152602001610cef565b50505050905001858152602001848152602001838103835289818151815260200191508051906020019080838360005b83811015610d4f578181015183820152602001610d37565b50505050905090810190601f168015610d7c5780820380516001836020036101000a031916815260200191505b50838103825287518152875160209182019189019080838360005b83811015610daf578181015183820152602001610d97565b50505050905090810190601f168015610ddc5780820380516001836020036101000a031916815260200191505b509850505050505050505060206040518083038186803b158015610dff57600080fd5b505afa158015610e13573d6000803e3d6000fd5b505050506040513d6020811015610e2957600080fd5b5051610e7c576040805162461bcd60e51b815260206004820152601760248201527f7472616e736665722070726f6f667320696e76616c6964000000000000000000604482015290519081900360640190fd5b610ebc836040015183600081518110610e9157fe5b60200260200101516000015184600081518110610eaa57fe5b6020026020010151602001518961258c565b81600381518110610ec957fe5b602002602001015183602001516000018190525081600581518110610eea57fe5b6020026020010151836020015160200181905250610f3e836020015183600181518110610f1357fe5b60200260200101516000015184600181518110610f2c57fe5b6020026020010151602001518961288a565b81600081518110610f4b57fe5b6020908102919091010151516101008401515281518290600090610f6b57fe5b602002602001015160200151836101000151600160048110610f8957fe5b6020020152815182906001908110610f9d57fe5b60209081029190910101515161010084015160400152815182906001908110610fc257fe5b602002602001015160200151836101000151600360048110610fe057fe5b6020020152815182906002908110610ff457fe5b6020908102919091010151516101608401515281518290600290811061101657fe5b60200260200101516020015183610160015160016008811061103457fe5b602002015281518290600390811061104857fe5b6020908102919091010151516101608401516040015281518290600390811061106d57fe5b60200260200101516020015183610160015160036008811061108b57fe5b602002015281518290600490811061109f57fe5b602090810291909101015151610160840151608001528151829060049081106110c457fe5b6020026020010151602001518361016001516005600881106110e257fe5b60200201528151829060059081106110f657fe5b60209081029190910101515161016084015160c0015281518290600590811061111b57fe5b60200260200101516020015183610160015160076008811061113957fe5b60200201526101008301516101608401516040516001600160a01b0389169233927fd8a40c38b0bc7c26155a602a9d2a17ce57fcc5f74ce0dad399d7607b887f701b9242908084608080838360005b838110156111a0578181015183820152602001611188565b5050505090500183600860200280838360005b838110156111cb5781810151838201526020016111b3565b50505050905001828152602001935050505060405180910390a3506001979650505050505050565b6111fb61308b565b60006112056130a9565b6112198686866001600160a01b0316612196565b805151845280516020908101518186015280820180515160408701525101519091508360036020020152604001519050935093915050565b600061126185600086868661126a565b95945050505050565b600060018410156112b3576040805162461bcd60e51b815260206004820152600e60248201526d1a5b9d985b1a5908185b5bdd5b9d60921b604482015290519081900360640190fd5b60606112be8461209a565b90506112c861308b565b6000611305836000815181106112da57fe5b602002602001015160000151846000815181106112f357fe5b6020026020010151602001518a6111f3565b6040805160038082526080820190925292945090925060609190602082018380368337019050509050818160008151811061133c57fe5b602002602001018181525050896001600160a01b03168160018151811061135f57fe5b602002602001018181525050888160028151811061137957fe5b6020908102919091010152600e54604051631e2e0b9b60e11b8152600481018a8152604482018990526001600160a01b0390921691633c5c1736918b918b918b918991889190602481019060640184608080838360005b838110156113e85781810151838201526020016113d0565b5050505090500180602001838103835287818151815260200191508051906020019080838360005b83811015611428578181015183820152602001611410565b50505050905090810190601f1680156114555780820380516001836020036101000a031916815260200191505b508381038252845181528451602091820191808701910280838360005b8381101561148a578181015183820152602001611472565b5050505090500197505050505050505060206040518083038186803b1580156114b257600080fd5b505afa1580156114c6573d6000803e3d6000fd5b505050506040513d60208110156114dc57600080fd5b505161152f576040805162461bcd60e51b815260206004820152601760248201527f646c65207369676d6120766572696679206661696c6564000000000000000000604482015290519081900360640190fd5b6115376130a9565b60408051808201825260008082526020808301829052918452825180840184528181528083018290529184019190915290820184905285516115a991839188919061157e57fe5b6020026020010151600001518760008151811061159757fe5b6020026020010151602001518d61258c565b8961166157600d5460408051635c95c2d160e01b81526001600160a01b038d81166004830152602482018d90529151828f16936108fc931691635c95c2d1916044808301926020929190829003018186803b15801561160757600080fd5b505afa15801561161b573d6000803e3d6000fd5b505050506040513d602081101561163157600080fd5b50516040518115909202916000818181858888f1935050505015801561165b573d6000803e3d6000fd5b506117bd565b896001600160a01b031663a9059cbb8c600d60009054906101000a90046001600160a01b03166001600160a01b0316635c95c2d18e8e6040518363ffffffff1660e01b815260040180836001600160a01b031681526020018281526020019250505060206040518083038186803b1580156116db57600080fd5b505afa1580156116ef573d6000803e3d6000fd5b505050506040513d602081101561170557600080fd5b5051604080516001600160e01b031960e086901b1681526001600160a01b03909316600484015260248301919091525160448083019260209291908290030181600087803b15801561175657600080fd5b505af115801561176a573d6000803e3d6000fd5b505050506040513d602081101561178057600080fd5b50516117bd5760405162461bcd60e51b815260040180806020018281038252602281526020018061316a6022913960400191505060405180910390fd5b896001600160a01b03168b6001600160a01b0316336001600160a01b03167ff1776db8d2226b9f116ce090547ff5d0c60156f48fec212c69ebb6637b7df5b98860008151811061180957fe5b6020026020010151600001518960018151811061182257fe5b60209081029190910181015181015160408051938452918301528181018f9052426060830152519081900360800190a45060019a9950505050505050505050565b60008281526007602090815260408083208484529091529020545b92915050565b6000611892826000806119b7565b90505b919050565b60608060606118a88461209a565b90506060815167ffffffffffffffff811180156118c457600080fd5b506040519080825280602002602001820160405280156118ee578160200160208202803683370190505b5090506060825167ffffffffffffffff8111801561190b57600080fd5b50604051908082528060200260200182016040528015611935578160200160208202803683370190505b50905060005b83518110156119ab5783818151811061195057fe5b60200260200101516000015183828151811061196857fe5b60200260200101818152505083818151811061198057fe5b60200260200101516020015182828151811061199857fe5b602090810291909101015260010161193b565b50909350915050915091565b6000806001600160a01b038416611a4e57600d546040805163086798b560e21b81526001600160a01b0387811660048301523460248301529151919092169163219e62d4916044808301926020929190829003018186803b158015611a1b57600080fd5b505afa158015611a2f573d6000803e3d6000fd5b505050506040513d6020811015611a4557600080fd5b50519050611bee565b3415611aa1576040805162461bcd60e51b815260206004820152601f60248201527f6465706f73697420746f6b656e20646f6e277420726563656976652065746800604482015290519081900360640190fd5b604080516323b872dd60e01b81523360048201523060248201526044810185905290516001600160a01b038616916323b872dd9160648083019260209291908290030181600087803b158015611af657600080fd5b505af1158015611b0a573d6000803e3d6000fd5b505050506040513d6020811015611b2057600080fd5b5051611b6b576040805162461bcd60e51b81526020600482015260156024820152741d1bdad95b881d1c985b9cd9995c8819985a5b1959605a1b604482015290519081900360640190fd5b600d546040805163086798b560e21b81526001600160a01b038781166004830152602482018790529151919092169163219e62d4916044808301926020929190829003018186803b158015611bbf57600080fd5b505afa158015611bd3573d6000803e3d6000fd5b505050506040513d6020811015611be957600080fd5b505190505b611bf66130d6565b611bff86612b21565b9050611c096130a9565b611c138383612b9b565b9050611c328183600001518460200151896001600160a01b031661288a565b81516020808401516040805193845291830152818101859052426060830152516001600160a01b0388169133917f5d43e451894cd68afedd40f5aeef95261d8ef8f405463131c9a1eea868541e749181900360800190a35060019695505050505050565b600d546001600160a01b031681565b6000611cb48484600085610acc565b949350505050565b60085460095482565b600c546001600160a01b031681565b600084815260066020908152604080832086845290915290205460ff16611d3b576040805162461bcd60e51b81526020600482015260166024820152751c195b991a5b99c8185b1c9958591e4818db1bdcd95960521b604482015290519081900360640190fd5b6000848152600760209081526040808320868452909152902054828114611d99576040805162461bcd60e51b815260206004820152600d60248201526c696e76616c6964206e6f6e636560981b604482015290519081900360640190fd5b60408051602080820188905281830187905260608083018790528351808403909101815260809092019092528051910120600090611dd690612c3d565b9050611df48187878660005b60200201518760016020020151612c51565b611e45576040805162461bcd60e51b815260206004820152601f60248201527f76657269667920636c6f73652070656e64696e6720736967206661696c656400604482015290519081900360640190fd5b60008681526003602090815260408083208884528252808320839055888352600682528083208884529091529020805460ff19169055611e86826001612cf9565b6000968752600760209081526040808920978952969052949095209390935550505050565b600a54600b5482565b600085815260066020908152604080832087845290915290205460ff1615611f1c576040805162461bcd60e51b81526020600482015260166024820152751c195b991a5b99c8185b1c9958591e481bdc195b995960521b604482015290519081900360640190fd5b6000858152600760209081526040808320878452909152902054828114611f7a576040805162461bcd60e51b815260206004820152600d60248201526c696e76616c6964206e6f6e636560981b604482015290519081900360640190fd5b6040805160208082018990528183018890526060820187905260808083018790528351808403909101815260a09092019092528051910120600090611fbe90612c3d565b9050611fce818888866000611de2565b61201f576040805162461bcd60e51b815260206004820152601e60248201527f766572696679206f70656e2070656e64696e6720736967206661696c65640000604482015290519081900360640190fd5b600585101561202d57603294505b60008781526003602090815260408083208984528252808320889055898352600682528083208984529091529020805460ff19166001908117909155612074908390612cf9565b6000978852600760209081526040808a20988a5297905295909620949094555050505050565b606060218251816120a757fe5b06156120e45760405162461bcd60e51b81526004018080602001828103825260258152602001806131ac6025913960400191505060405180910390fd5b600060218351816120f157fe5b0490508067ffffffffffffffff8111801561210b57600080fd5b5060405190808252806020026020018201604052801561214557816020015b6121326130d6565b81526020019060019003908161212a5790505b50915060005b8181101561218f576000806121608684612d16565b9150915061216e8183612d65565b85848151811061217a57fe5b6020908102919091010152505060010161214b565b5050919050565b61219e6130a9565b6121a66130a9565b506000848152602081815260408083208684528252808320858452825291829020825160a08101845281546060820190815260018301546080830152815283518085018552600283015481526003830154818501529281019290925260040154918101919091526122156130a9565b5060008581526001602081815260408084208885528252808420878552825292839020835160a08101855281546060820190815293820154608082015292835283518085018552600282015481526003820154818401529183019190915260040154918101919091526122866130a9565b604080840151908201528151835161229d91612540565b8152602080830151908401516122b291612540565b6020808301919091526000888152600682526040808220898352909252205460ff16158015612303575060008781526002602081815260408084208a85528252808420898552909152909120015415155b1561239757600087815260026020908152604080832089845282528083208884528252918290208251808401909352805483526001015490820152815161234991612540565b815260008781526002602081815260408084208a8552825280842089855282529283902083518085019094529182015483526003909101548282015282015161239191612540565b60208201525b600087815260066020908152604080832089845290915290205460ff1680156123e2575060008781526002602081815260408084208a85528252808420898552909152909120015415155b801561242a5750600087815260056020908152604080832089845282528083208884528252808320548a8452600383528184208a855290925290912054438161242757fe5b04115b156124be57600087815260026020908152604080832089845282528083208884528252918290208251808401909352805483526001015490820152815161247091612540565b815260008781526002602081815260408084208a855282528084208985528252928390208351808501909452918201548352600390910154828201528201516124b891612540565b60208201525b9695505050505050565b6124d06130d6565b81511580156124e157506020820151155b1561250057506040805180820190915260008082526020820152611895565b5060408051808201909152815181526020808301517f30644e72e131a029b85045b68181585d97816a916871ca8d3c208c16d87cfd470390820152919050565b6125486130d6565b61255061308b565b83518152602080850151818301528351604080840191909152908401516060830152826080836006600019fa61258557600080fd5b5092915050565b600083815260208181526040808320858452825280832084845282529182902086518051825582015160018083019190915582880151805160028401559092015160038201559186015160049092018290556125e89190612cf9565b600084815260208181526040808320868452825280832085845282528083206004019390935585825260018152828220858352815282822084835290522060020154156126925760408051808201825260008082526020808301828152878352600180835285842088855283528584208785528084528685209551865591519085015584518086019095528285528482018381529286905290529151600282015590516003909101555b600083815260066020908152604080832085845290915290205460ff161580156126de575060008381526002602081815260408084208685528252808420858552909152909120015415155b156127495760408051808201825260008082526020808301828152878352600280835285842088855283528584208785528084528685209551865591516001860155855180870190965283865285830184815293879052915292519282019290925590516003909101555b600083815260066020908152604080832085845290915290205460ff1680156127ae575060008381526005602090815260408083208584528252808320848452825280832054868452600383528184208685529092529091205443816127ab57fe5b04115b1561288457600083815260036020908152604080832085845290915290205443816127d557fe5b6000858152600560209081526040808320878452825280832086845282528083209490930490935585815260028084528282208683528452828220858352909352200154156128845760408051808201825260008082526020808301828152878352600280835285842088855283528584208785528084528685209551865591516001860155855180870190965283865285830184815293879052915292519282019290925590516003909101555b50505050565b600083815260066020908152604080832085845290915290205460ff1661293f5760008381526020818152604080832085845282528083208484528252918290208651835180850190945281548452600182015492840192909252916128ef91612540565b8051825560209081015160018301558581015160408051808201909152600284015481526003840154928101929092526129299190612540565b8051600283015560200151600390910155612884565b60008381526001602090815260408083208584528252808320848452825280832086845260028352818420868552835281842085855283528184208785526003845282852087865290935290832054909290438161299957fe5b60008881526005602090815260408083208a845282528083208984529091529020549190049150811415612a405786516040805180820190915283548152600184015460208201526129ea91612540565b805183556020908101516001840155878101516040805180820190915260028501548152600385015492810192909252612a249190612540565b8051600284015560200151600390920191909155506128849050565b604080518082018252835481526001808501546020808401919091528351808501909452865484529086015490830152612a7a9190612540565b805184556020908101516001850155604080518082018252600280860154825260038087015483860152835180850190945290870154835286015492820192909252612ac591612540565b805160028581019190915560209182015160039586015588518051855582015160018501559781015180519884019890985596870151919092015560009384526005855260408085209385529285528284209184529352902055565b612b296130d6565b8151602114612b7f576040805162461bcd60e51b815260206004820152601f60248201527f696e76616c696420636f6d7072657373656420706f696e7420666f726d617400604482015290519081900360640190fd5b600080612b8d846000612d16565b91509150611cb48183612d65565b612ba36130a9565b600160201b8310612bf1576040805162461bcd60e51b8152602060048201526013602482015272616d6f756e74206f7574206f662072616e676560681b604482015290519081900360640190fd5b612bf96130a9565b60408051808201825260008082526020808301919091529083528151808301909252600a548252600b5490820152612c319085612e83565b60208201529392505050565b60008051602061318c833981519152900690565b6000612c5c82612ee6565b91506000612c6a8784612f77565b90506000612c788585612f77565b9050612c826130d6565b612cd3612cac8360405180604001604052808c81526020018b815250612e8390919063ffffffff16565b6040805180820190915260085481526009546020820152612ccd9086612e83565b90612540565b80519091508614612cea5760009350505050611261565b50600198975050505050505050565b600060008051602061318c83398151915280838508949350505050565b6000806000600160ff16858560210281518110612d2f57fe5b602001015160f81c60f81b60f81c60011660ff161490506000612d588686602102600101612f94565b9196919550909350505050565b612d6d6130d6565b82612d8c5750604080518082019091526000808252602082015261187e565b7f30644e72e131a029b85045b68181585d97816a916871ca8d3c208c16d87cfd4760008185860990508180612dbd57fe5b8582099050600360008380612dce57fe5b82840890506000612de6826004600188010487612f9c565b9050818580612df157fe5b82830914612e46576040805162461bcd60e51b815260206004820152601b60248201527f496e76616c696420706f696e743a206e6f74206f6e2063757276650000000000604482015290519081900360640190fd5b604080518082019091528881526020810182905295506001808216148715158114612e7757612e74876124c8565b96505b50505050505092915050565b612e8b6130d6565b8160011415612e9b57508161187e565b8160021415612eb557612eae8384612540565b905061187e565b612ebd6130f0565b83518152602080850151908201526040808201849052826060836007600019fa61258557600080fd5b600060008051602061318c8339815191528280612f0857600092505050611895565b81811115612f1d57818181612f1957fe5b0690505b600060018383835b8115612f4e57818381612f3457fe5b949594048581029094039391928383029003919050612f25565b6000851215612f6a575050505060000390910391506118959050565b5092979650505050505050565b600060008051602061318c83398151915280838509949350505050565b016020015190565b6000612fa661310e565b612fae61312c565b602080835282810181905260408301819052606083018790526080830186905260a083018590528160c0846005600019fa612fe857600080fd5b5195945050505050565b6040518061018001604052806130066130a9565b81526020016130136130a9565b81526020016130206130a9565b815260200160006001600160a01b03168152602001600081526020016000815260200161304b61308b565b81526020016000815260200161305f61308b565b815260200161306c61308b565b815260200161307961308b565b815260200161308661314a565b905290565b60405180608001604052806004906020820280368337509192915050565b60405180606001604052806130bc6130d6565b81526020016130c96130d6565b8152602001600081525090565b604051806040016040528060008152602001600081525090565b60405180606001604052806003906020820280368337509192915050565b6040518060c001604052806006906020820280368337509192915050565b60405180602001604052806001906020820280368337509192915050565b604051806101000160405280600890602082028036833750919291505056fe7472616e7366657220746f6b656e206261636b20746f2075736572206661696c656430644e72e131a029b85045b68181585d2833e84879b9709143e1f593f0000001696e76616c6964206d756c746920636f6d7072657373656420706f696e7420666f726d6174a2646970667358221220078089c9b44027e84dd3402a682216af259e3f9f55419cb22becd3475eefcc5e64736f6c63430007040033",
  "linkReferences": {},
  "deployedLinkReferences": {}
}